:020000040800F2
:100000006804002045010008C9020008CB0200086E
:10001000CF020008D3020008D70200080000000049
:10002000000000000000000000000000DB020008EB
:10003000DD02000800000000DF020008E102000805
:100040005F0100085F0100085F010008E30200088B
:100050005F0100085F0100085F0100085F01000800
:100060005F0100085F0100085F0100085F010008F0
:100070005F0100085F0100085F0100085F010008E0
:100080005F0100085F0100085F0100085F010008D0
:100090005F0100085F0100085F0100085F010008C0
:1000A0005F0100085F0100085F0100085F010008B0
:1000B0005F0100085F0100085F0100085F010008A0
:1000C0005F0100085F0100085F0100085F01000890
:1000D0005F0100085F0100085F0100085F01000880
:1000E0005F0100085F0100085F0100085F01000870
:1000F0005F0100085F0100085F0100085F01000860
:100100005F0100085F0100085F0100085F0100084F
:100110005F0100085F0100085F0100085F0100083F
:100120005F0100085F0100085F0100085F0100082F
:10013000DFF80CD001F070FC0048004769010008AE
:10014000680400200648804706480047FEE7FEE7AF
:10015000FEE7FEE7FEE7FEE7FEE7FEE7FEE7FEE777
:10016000EB1800083101000800F09AFB00F0B0FB2A
:1001700000F0D4FB00F0D2F800F0DBF91EA001F093
:100180005DFC042001F09DF94AF2A551884212D08D
:1001900021A001F053FC26A001F050FC00F0DEF994
:1001A0002BA001F04BFC00F076FA4AF2A551042096
:1001B00001F07BF919E07B2000F00DFC18B12AA0BA
:1001C00001F03CFC06E07A2000F005FC10B12EA006
:1001D00001F034FC34A001F031FC01F004FA0121FB
:1001E000084601F09BF901F0F5F900F05DFD00F023
:1001F000D9FA00BFFEE700000D0A20546869732099
:1002000069732061205254432064656D6F2E2E2E39
:100210002E2E2E200D0A00000D0A546869732069E5
:10022000732061205254432064656D6F210D0A00D4
:100230000D0A0A20525443206E6F74207965742091
:10024000636F6E666967757265642E2E2E2E0000D0
:100250000D0A2052544320636F6E6669677572659C
:10026000642E2E2E2E0000000D0A0A20506F776596
:1002700072204F6E205265736574206F63637572D0
:100280007265642E2E2E2E000D0A0A2045787465A4
:10029000726E616C205265736574206F6363757252
:1002A0007265642E2E2E2E000D0A204E6F206E6574
:1002B000656420746F20636F6E6669677572652070
:1002C0005254432E2E2E2E00704700BFFEE700BF73
:1002D000FEE700BFFEE700BFFEE7704770477047CC
:1002E000704710B5012001F0A3F988B1012001F099
:1002F000AFF901200749086001F06CF901F02EF90F
:100300000549884204D1002001F031F901F062F979
:1003100010BD0000280000208051010000B585B00C
:10032000012144F2040000F081FC4FF40070ADF8AC
:10033000100018208DF8130003208DF8120004A976
:10034000754800F037FD4FF48060ADF810000420D0
:100350008DF8130004A9704800F02CFD4FF4E13033
:1003600000900020ADF80400ADF80600ADF80800DC
:10037000ADF80C000C20ADF80A006946674800F0A3
:10038000AAFE0121654800F032FF05B000BD70B53E
:1003900004460D46E1B2614800F096FF00BF5F4899
:1003A000008800F080000028F9D0204670BDF0B52C
:1003B00003460D461646002729460A2E03D0002084
:1003C00008702846F0BD33B9302001F8010B002039
:1003D00008702846F6E7002B03DA2D2001F8010B00
:1003E0005B4242F210720DE093FBF2F404B937B1B4
:1003F00004F1300001F8010B04FB123301270A203D
:1004000092FBF0F2002AEFDC002008702846D9E7C2
:100410000FB470B586B006460CA8019073E00B9837
:1004200000785C281CD10B98401C0B9000786E283B
:1004300009D072280FD10D21304600F045FF0B98EE
:10044000401C0B900BE00A21304600F03DFF0B985A
:10045000401C0B9003E00B98401C0B9000BF4BE03E
:100460000B980078252840D10B98401C0B90007801
:10047000642818D0732833D1019810C801900BE07C
:100480002178304600F020FF00BF4021304600F0C8
:1004900089FF0028F9D0641C20780028F0D10B983F
:1004A000401C0B9020E0019820C801900A2202A96C
:1004B0002846FFF77CFF02AC0BE02178304600F0C5
:1004C00003FF00BF4021304600F06CFF0028F9D048
:1004D000641C20780028F0D10B98401C0B9003E09E
:1004E0000B98401C0B9000BF06E00B9810F8011B06
:1004F0000B90304600F0E8FE00BF4021304600F08F
:1005000051FF0028F9D00B980078002887D106B059
:1005100070BC5DF814FB0000000801400038014089
:1005200001B502E00098401E009000980028F9D123
:1005300008BD08B54FF4C06001F0FAF803208DF84B
:10054000000001208DF8010000208DF8020001203C
:100550008DF80300684601F0F0F808BD10B50121E0
:100560004FF0C05000F06FFB012001F086F800F062
:1005700073FF012000F0C7FA00BF412000F02BFA02
:100580000028FAD04FF4807000F0D9FA012000F072
:10059000DCFA01F028F801F01DF80121084600F00E
:1005A000BDFF01F017F847F6FF7000F0EDFF01F016
:1005B00011F810BD7CB50546002400200090019084
:1005C0001BE000BF2021804800F0ECFE0028F9D09D
:1005D0007D4800F07DFE2146641C4DF82100601E20
:1005E0005DF82000302804D3601E5DF82000392813
:1005F00003D976A001F022FA641E022CE1D30198FF
:1006000030380099303901EB810100EB4104AC42F4
:1006100005D9294678A001F011FAFF207CBDE0B28F
:10062000FCE770B5FF26FF24FF257F4801F006FA9E
:100630007EA001F003FA03E01720FFF7BBFF064698
:10064000FF2EF9D031467FA001F0F8F97FA001F02C
:10065000F5F903E03B20FFF7ADFF0446FF2CF9D08E
:10066000214678A001F0EAF97EA001F0E7F903E065
:100670003B20FFF79FFF0546FF2DF9D029467FA0BD
:1006800001F0DCF94FF461607043C4EB041100EB3E
:100690008100284470BD10B500F09CFFFFF7C1FF3A
:1006A000044600F064FF00F095FF10BD2DE9F0470F
:1006B00005464FF00009002600274FF46160B5FBA6
:1006C000F0F90A20B9FBF0F06E4908700A20B9FB76
:1006D000F0F100FB11906B4948700A2088704FF4CC
:1006E0006160B5FBF0F100FB11503C21B0FBF1F66D
:1006F0000A20B6FBF0F06349C8700A20B6FBF0F19F
:1007000000FB11605F4908710A2048714FF4616075
:10071000B5FBF0F100FB11503C21B0FBF1F201FB05
:1007200012070A20B7FBF0F0564988710A20B7FB80
:10073000F0F100FB11705349C8716FB966B94FF6FB
:10074000FF71514800F0E5FB5048FFF7E9FE4FF616
:10075000FF714D4800F0DBFB4FF000081CE0002467
:1007600015E04849085D00F0CBF8494830F824000E
:1007700081B2484800F0CDFBFF20FFF7D1FE44488E
:1007800030F8240081B2434800F0C1FB641C082CFF
:10079000E7DB002408F1010840F24C408045DEDB35
:1007A000BDE8F0873CA001F049F90BE03B48006848
:1007B000012807D100F0D2FE0446FFF777FF0020A2
:1007C00036490860F2E70000003801400A0D506C1D
:1007D0006561736520656E7465722076616C69640D
:1007E000206E756D626572206265747765656E2036
:1007F0003020616E642039000A0D506C65617365AC
:1008000020656E7465722076616C6964206E756D0A
:10081000626572206265747765656E203020616E56
:100820006420256400000000D01B00080D0A202071
:10083000506C656173652053657420486F757273E1
:10084000000000003A202025640000000D0A20204E
:10085000506C6561736520536574204D696E7574C5
:10086000657300000D0A2020506C6561736520538C
:100870006574205365636F6E647300003A20202511
:10088000640D0A0000000020001C0140FFFF3F0033
:1008900008000020001401400A0D0000280000207C
:1008A00008B50121402000F0C1F910208DF80300A7
:1008B000FF20ADF8000001208DF8020069461448C1
:1008C00000F078FA4FF6FF71114800F020FB08BDE8
:1008D00008B50121202000F0A9F910208DF80300AF
:1008E000FF20ADF8000003208DF80200694609489A
:1008F00000F060FA4FF6FF71064800F008FB08BDF3
:1009000010B504460448015D014800F009FB10BD24
:1009100000180140001401402C00002008B50121FE
:10092000802000F083F90120ADF8000010208DF840
:10093000030003208DF802006946044800F03AFAEB
:100940004FF6FF71014800F0E2FA08BD001C0140BB
:10095000DF48006840F00100DD4908600846406853
:10096000DC490840DA49486008460068DA4908402E
:10097000D74908600846006820F4802008600846CF
:10098000406820F4FE0048604FF41F008860704704
:10099000CF49096821F48031CD4A116011460968B8
:1009A00021F480211160B0F5803F03D0B0F5802F95
:1009B0000ED106E0C649096841F48031C44A11608D
:1009C00007E0C349096841F4A021C14A116000E071
:1009D00000BF00BF704710B5014600220023002071
:1009E0004A11012A02D1BA4C236806E0022A02D138
:1009F000B74C236A01E0B64C636A01F01F02012480
:100A000094401C400CB1012000E0002010BD38B51E
:100A1000002000900024002500BF3120FFF7DBFFFD
:100A200005460098401C00900098B0F5A06F01D0DA
:100A3000002DF2D03120FFF7CEFF08B1012400E0F5
:100A40000024204638BD01460020A14A106820F04D
:100A5000F80040EAC10010607047A0490860704784
:100A6000024600209A4B586820F47C1042EA0103A9
:100A70001843974B5860704798490866704701467D
:100A80000020934A506820F00300084350607047EC
:100A90008F48406800F00C007047014600208C4AE7
:100AA000506820F0F0000843506070470146002075
:100AB000874A506820F4E060084350607047014660
:100AC0000020834A506820F4605040EAC100506022
:100AD000704729B17E4A527A02437D4B5A7204E034
:100AE0007B4A527A82437A4B5A7270477B49D8319B
:100AF0000860704701460020754A506820F4404065
:100B00000843506070470021714A20321170704ACA
:100B100082F82010012802D004280AD104E0012123
:100B20006B4A2032117005E00521694A20321170AC
:100B300000E000BF00BF7047694908607047644922
:100B4000096A0143624A1162704765494439086085
:100B5000704730B500210022002400235C4D6D68F1
:100B600005F00C0121B1042905D0082923D105E0A5
:100B70005C4D056022E05B4D05601FE0544D6D68E3
:100B800005F47012524D6D6805F48034022505EBB2
:100B900092421CB9544D554305600BE04C4D6D68B5
:100BA00005F400351DB1504D5543056002E04D4D33
:100BB0005543056002E04B4D056000BF00BF444D4A
:100BC0006D6805F0F0010909484D6B5C0568DD4072
:100BD00045603F4D6D6805F4E061090A434D6B5C6B
:100BE0004568DD4085603A4D6D6805F46051C90A7D
:100BF0003E4D6B5C4568DD40C560354D6D6805F464
:100C00004041890B3A4D6B5CC568B5FBF3F5056156
:100C100030BD29B12E4A526902432D4B5A6104E07E
:100C20002B4A526982432A4B5A61704729B1284A9C
:100C300092690243264B9A6104E0254A92698243F5
:100C4000234B9A61704729B1214AD2690243204B54
:100C5000DA6104E01E4AD26982431D4BDA617047B3
:100C600029B11B4AD2680243194BDA6004E0184AE2
:100C7000D2688243164BDA60704729B1144A126970
:100C80000243134B1A6104E0114A12698243104B6C
:100C90001A61704712494039086070470F49C864AB
:100CA00070470B49C87170470948406A40F080702E
:100CB00007494862704701460020054A92680A4089
:100CC0000AB1012000E00020704701498872704796
:100CD000001002400000FFF8FFFFF6FE0000424255
:100CE0008004424200127A0000093D0037000020D3
:100CF0004700002010B50446CC48844208D10121A9
:100D00000420FFF7ADFF00210420FFF7A9FF46E014
:100D1000C748844208D101210820FFF7A1FF002124
:100D20000820FFF79DFF3AE0C248844208D1012124
:100D30001020FFF795FF00211020FFF791FF2EE014
:100D4000BD48844208D101212020FFF789FF0021FE
:100D50002020FFF785FF22E0B848844208D1012116
:100D60004020FFF77DFF00214020FFF779FF16E0CC
:100D7000B348844208D101218020FFF771FF002190
:100D80008020FFF76DFF0AE0AE48844207D10121C1
:100D90008015FFF765FF0021A015FFF761FF10BD6B
:100DA00010B501210846FFF75BFF00210120FFF786
:100DB00057FF10BD2DE9F041024600250026002016
:100DC00000230024002791F803C00CF00F0591F8D0
:100DD00003C00CF0100CBCF1000F03D091F802C05E
:100DE0004CEA050591F800C0BCF1000F31D0146841
:100DF00000202BE04FF0010C0CFA00F3B1F800C01A
:100E00000CEA03069E4220D183004FF00F0C0CFA2F
:100E100003F7BC4305FA03FC4CEA040491F803C051
:100E2000BCF1280F06D14FF0010C0CFA00FCC2F8FF
:100E300014C00AE091F803C0BCF1480F05D14FF08F
:100E4000010C0CFA00FCC2F810C0401C0828D1D3D9
:100E50001460B1F800C0BCF1FF0F34DD546800200D
:100E60002EE000F1080C4FF0010808FA0CF3B1F87D
:100E700000C00CEA03069E4221D183004FF00F0C04
:100E80000CFA03F7BC4305FA03FC4CEA040491F89E
:100E900003C0BCF1280F05D100F1080C08FA0CF8CA
:100EA000C2F8148091F803C0BCF1480F07D100F1DB
:100EB000080C4FF0010808FA0CF8C2F81080401C2A
:100EC0000828CED35460BDE8F0814FF6FF71018051
:100ED000022181700421C17070470246002093688E
:100EE0000B400BB1012000E00020704701468868EC
:100EF00080B2704702460020D3680B400BB101203E
:100F000000E0002070470146C86880B27047016168
:100F10007047416170470AB1016100E0416170476B
:100F2000C16070474FF480320A43826181618261FF
:100F300082698269704702460020434B18684FF669
:100F40008073184040EA021008433F4B1860704716
:100F50003E49C8617047F0B50A46002300240021CD
:100F6000002500F00046B6F1004F02D1364EF1697F
:100F700001E0354E7168C0F3034583B200F44016BA
:100F8000B6F5401F08D121F070612F4E766826F02B
:100F900070662D4F7E6012E000F48016B6F5801F5B
:100FA00006D1032606FA05F4A14341F0706106E07C
:100FB000460D360103FA06F6B14341F0706122B1E5
:100FC000460D360103FA06F6314300F00046B6F14D
:100FD000004F02D11C4EF16101E01B4E7160F0BD6B
:100FE00030B500228B071C0F0F2303FA04F2164BB7
:100FF00008338C1053F824309343134C08348D106D
:1010000044F8253023468C1053F824308C07240FE5
:1010100000FA04F423430C4C08348D1044F82530B6
:1010200030BD0A49DC31086070470000000801400B
:10103000000C014000100140001401400018014064
:10104000001C01400020014000000140000020423F
:1010500010B50446FB48844209D101218803FFF7FB
:10106000FFFD00214FF48040FFF7FAFD32E0F64823
:10107000844209D101214804FFF7FFFD00214FF40C
:101080000030FFF7FAFD25E0F048844209D1012144
:101090008804FFF7F2FD00214FF48020FFF7EDFDFB
:1010A00018E0EB48844209D10121C804FFF7E5FDAF
:1010B00000214FF40020FFF7E0FD0BE0E5488442FB
:1010C00008D101210805FFF7D8FD00214FF4801059
:1010D000FFF7D3FD10BD2DE9F04786B005460E465B
:1010E0000024A24600BFA1460027B08900B100BF7E
:1010F0002F462C8A4CF6FF700440F08804432C8263
:10110000AC894EF6F3100440B088318908437189E8
:1011100008430443AC81AC8A4FF6FF400440B089D9
:101120000443AC8201A8FFF714FDC648874202D1F0
:10113000DDF810A001E0DDF80CA0A88900F4004063
:1011400040B10AEBCA0000EB0A1031684900B0FB5D
:10115000F1F807E00AEBCA0000EB0A1031688900D9
:10116000B0FBF1F86420B8FBF0F004012009642121
:1011700001FB1089A88900F4004040B1322000EB47
:10118000C900B0FBF1F000F00700044308E0322092
:1011900000EB09106421B0FBF1F000F00F000443F4
:1011A0002C8106B0BDE8F0874FF416510160002194
:1011B0008180C18001810C214181002181817047A2
:1011C00010B502460020108A4FF2FF0318400B882A
:1011D0004C8823438C882343CC88234318431082B4
:1011E00010BD0021018041808180C180704721B104
:1011F000828942F40052828104E082894DF6FF73B5
:101200001A4082817047F0B503460024002600256D
:10121000002040F66A17B94200D100BF1846C1F35A
:10122000421401F01F06012707FA06F5012C01D12F
:101230000C3004E0022C01D1103000E014301AB15F
:1012400007682F43076002E00768AF430760F0BDFF
:101250001AB1838A0B43838202E0838A8B438382A1
:101260007047028A4FF6F0731A400282028A0A43DC
:101270000282704782894FF2FF731A40828182890D
:101280000A438281704721B1828942F00202828141
:1012900004E082894FF6FD731A4082817047028A0A
:1012A0004FF6DF731A400282028A0A4302827047B5
:1012B00021B1028A42F48042028204E0028A4BF6A3
:1012C000FF731A4002827047C1F3080282807047A0
:1012D00001468888C0F308007047818941F0010108
:1012E00081817047028BD2B20283028B42EA0122D3
:1012F00002837047028B02F47F420283028B0A430F
:101300000283704721B1828A42F02002828204E087
:10131000828A4FF6DF731A408282704721B1828A37
:1013200042F01002828204E0828A4FF6EF731A4084
:101330008282704721B1828A42F00802828204E0F0
:10134000828A4FF6F7731A408282704721B18289F0
:1013500042F40042828103E08289C2F30E0282815C
:10136000704721B1828A42F40062828204E0828A5C
:101370004FF2FF731A4082827047828A4FF6FB73E6
:101380001A408282828A0A438282704721B1828A0D
:1013900042F00202828204E0828A4FF6FD731A4014
:1013A0008282704702460020B1F5007F00D100BF65
:1013B00013880B400BB1012000E00020704701F4BE
:1013C0000072B2F5007F00D100BFCA4302807047AF
:1013D00070B50246002400230025002040F66A165E
:1013E000B14200D100BFC1F3421501F01F03012635
:1013F00006FA03F3012D02D19689334006E0022D4F
:1014000002D1168A334001E0968A33400C1201263D
:1014100006FA04F41688344013B10CB1012000E040
:10142000002070BD10B50022002340F66A14A142CE
:1014300000D100BF0A1201249440A3B2DC4304800F
:1014400010BD00000038014000440040004800404A
:10145000004C00400050004010B50120FFF71AFC7E
:101460000020FFF717FC10BD2A4908607047294982
:10147000091F08607047274984310860704701469A
:101480000020254A10884FF67F4210400843224A28
:1014900010807047014600201F4A10884FF6807266
:1014A000104008431C4A1080704708B50022009283
:1014B000194A2C3A0092009A02440092009A116054
:1014C00008BD08B501460020009013482C38009054
:1014D0000098084400900098008808BD0D489C3092
:1014E0000068C0B270470C480830008840F0010026
:1014F00009490831088070470648A0300068C0B22A
:10150000704705480830008840F002000249083161
:101510000880704704860D422C6C004029B1504A67
:10152000128802434E4B1A8004E04D4A12888243CF
:101530004B4B1A8070474A48001D008840F010004D
:101540004749091D088070474548001D00884FF62F
:10155000EF7108404249091D08807047002140484A
:101560001C300188001F008841EA0040704700B528
:101570000246FFF7E0FF100C394918310880091DB9
:101580000A80FFF7E1FF00BD00B50246FFF7D3FF79
:10159000C2F30340324908310880091D0A80FFF771
:1015A000D3FF00BD00B50246FFF7C5FF100C2C4964
:1015B00020310880091D0A80FFF7C6FF00BD00200A
:1015C0002749103109880907080B25491431098872
:1015D0000843704700BF2248001D008800F020002B
:1015E0000028F8D070471E48001D00884FF6F7719C
:1015F00008401B49091D088000BF1948001D0088CC
:1016000000F008000028F8D0704701460020144A76
:10161000121D12880A400AB1012000E00020704724
:101620000F49091D098881430D4A121D1180704719
:10163000014600200A4A121D12880A40D0B2084A08
:1016400012880A4012B108B1012000E00020704762
:101650000349091D09888143014A121D1180704701
:101660000028004010B501210807FFF706FB002104
:101670004FF08050FFF701FB10BD2A490862704708
:1016800028490861704701460020274A106820F069
:10169000E0000843106070472249A031086070479D
:1016A00010B502460020204B186820F003001043BC
:1016B00018601E4B1B6843F004031C4C2360012977
:1016C00001D130BF00E020BF184B1B6823F004039A
:1016D000164C236010BD1448006840F00400124905
:1016E00008600846006840F0020008600F48006883
:1016F00040F004000D49086000BF00BF30BF7047D4
:1017000001460020084A52680A400AB1012000E060
:10171000002070470449096841EA8001024A1160CB
:101720007047000000000E420070004010ED00E025
:1017300031490143314A1160704770B500210023DF
:101740000F22C47804B32D4C246804F4E064C4F57B
:10175000E064210AC1F10403CA40447804FA03F1A9
:101760008478144021430901254C0678A15504785A
:1017700004F01F050124AC4005786D11AD0005F1A2
:10178000E025C5F8004109E0047804F01F050124B4
:10179000AC401C4D0678761145F8264070BD1A4ABB
:1017A0000A400243154B1B1F1A60704739B1134A98
:1017B000121D12680243114B1B1D1A6006E00F4AEE
:1017C000121D126882430D4B1B1D1A6070470428BE
:1017D00008D14FF0E021096941F004014FF0E02207
:1017E000116107E04FF0E021096921F004014FF099
:1017F000E0221161704700000000FA050CED00E0E6
:1018000000E400E080E100E080FFFF1F0CB5002055
:10181000019000906C48006840F480306A4908608C
:1018200000BF6948006800F4003000900198401C37
:101830000190009818B90198B0F5A06FF1D16248F5
:10184000006800F4003010B10120009001E0002099
:1018500000900098012843D15C48006840F01000D7
:101860005A4908600846006820F0030008600846EE
:10187000006840F0020008605348406852494860E0
:101880000846406848600846406840F48060486008
:101890000846406820F47C1048600846406840F4E0
:1018A000E81048600846006840F08070086000BF9B
:1018B0004548006800F000700028F9D042484068B0
:1018C00020F00300404948600846406840F00200AC
:1018D000486000BF3C48406800F00C000828F9D17F
:1018E0000CBD10B5FFF792FF10BD10B5364800686B
:1018F00040F0010034490860084640683449084017
:101900003149486008460068324908402E4908605D
:101910000846006820F4802008600846406820F4EB
:10192000FE0048604FF41F008860FFF7DAFF4FF0B9
:1019300000602949086010BD10B500210020002278
:10194000214B5B6803F00C0121B1042906D0082962
:1019500028D107E0214B224C236027E01F4B204C6D
:10196000236023E0184B5B6803F47010164B5B6830
:1019700003F48032022303EB904022B9194B434316
:10198000174C23600DE0104B5B6803F4003323B168
:10199000144B4343124C236003E0104B4343104C61
:1019A000236003E00D4B0E4C236000BF00BF064BCD
:1019B0005B68C3F303130C4CE15C094B1B68CB4021
:1019C000074C236010BD00000010024000200240C0
:1019D0000000FFF8FFFFF6FE08ED00E000127A00BD
:1019E0004C00002000093D005000002030B50B469F
:1019F000014600202022012409E021FA02F59D423F
:101A000005D303FA02F5491B04FA02F52844151E12
:101A1000A2F10102F1DC30BD064C074D06E0E068A2
:101A200040F0010394E8070098471034AC42F6D325
:101A3000FEF782FB141C0008341C00080FB4054B91
:101A400010B503A9044A029800F018F810BC5DF81C
:101A500014FB00008F0300086000002002E008C8AB
:101A6000121F08C1002AFAD170477047002001E018
:101A700001C1121F002AFBD1704700002DE9FF4F62
:101A800089B09B460446002506E025280BD05A461F
:101A90000B999047641C6D1C20780028F5D10DB07F
:101AA0002846BDE8F08F0027B8460122474900E0EC
:101AB000074314F8013F203B02FA03F00842F7D134
:101AC00020782E2819D114F8010F47F004072A288E
:101AD0000ED06FF02F022078A0F1300109290CD828
:101AE00008EB880102EB410100EB0108641CF2E7FE
:101AF0000A98641C50F8048B0A9020780028CED0F5
:101B0000642808D0692806D075281ED05A460B993B
:101B100090476D1C58E00A994FF00A0901C90A91D3
:101B2000002802DA40422D2102E0390504D52B219C
:101B30008DF82010012103E0F90704D02021F7E7F8
:101B40008A4608AE0DE00021FAE70A994FF00A092B
:101B500001C90A91F7E74946FFF748FF303106F817
:101B6000011D0028F7D1ADEB060000F12009780730
:101B700001D44FF00108C84502DDA8EB090000E0E0
:101B800000208046002706E008A85A46C05D0B9951
:101B900090476D1C7F1C5745F6DB04E030205A4609
:101BA0000B9990476D1CB8F10001A8F10108F5DC14
:101BB00005E016F8010B5A460B9990476D1CB9F1D8
:101BC0000001A9F10109F4DC641C65E709280100A2
:101BD0000D0A3D3D3D3D3D3D3D3D3D3D3D3D3D3D98
:101BE00054696D652053657474696E67733D3D3D3E
:101BF0003D3D3D3D3D3D3D3D3D3D3D3D3D3D3D3D15
:101C00003D3D3D3D3D3D3D3D3D3D3D3D3D3D3D3D04
:101C10003D3D0000341C000800000020640000006E
:101C20005C1A0008981C00086400002004040000EE
:101C30006C1A000800000000000000000100000015
:101C40000200000004000000080000001000000076
:101C500020000000400000008000000000000000A4
:101C6000C0F9A4B0999282F88090BF0000000001F2
:101C7000020304010203040607080902040608001F
:101C800000A24A040000000000000000010203045A
:081C900006070809000000002E
:0400000508000131BD
:00000001FF
