:020000040800F2
:1000000060060020B101000851040008B303000895
:100010004D0400086B020008C50500080000000040
:10002000000000000000000000000000750400084F
:100030006F0200080000000053040008610500087A
:10004000CB010008CB010008CB010008CB01000860
:10005000CB010008CB010008CB010008CB01000850
:10006000CB010008CB010008CB010008CB01000840
:10007000CB010008CB010008CB010008CB01000830
:10008000CB010008CB010008CB010008CB01000820
:10009000CB010008CB010008CB010008CB01000810
:1000A000CB010008CB010008CB010008CB01000800
:1000B000CB010008CB010008CB010008CB010008F0
:1000C000CB010008CB010008CB010008CB010008E0
:1000D000CB010008CB010008CB010008CB010008D0
:1000E000CB010008CB010008CB010008CB010008C0
:1000F000CB010008CB010008CB010008CB010008B0
:10010000CB010008CB010008CB010008CB0100089F
:10011000CB010008CB010008CB010008CB0100088F
:10012000CB010008CB010008CB010008CB0100087F
:1001300000F002F800F02CF80AA090E8000C8244CD
:100140008344AAF10107DA4501D100F021F8AFF2AA
:10015000090EBAE80F0013F0010F18BFFB1A43F0A5
:1001600001031847C4070000D4070000002300243F
:1001700000250026103A28BF78C1FBD8520728BFB7
:1001800030C148BF0B6070471FB51FBD10B510BD13
:1001900000F031F81146FFF7F7FF00F015FA00F014
:1001A0004FF803B4FFF7F2FF03BC00F057F800006C
:1001B0000948804709480047FEE7FEE7FEE7FEE7FB
:1001C000FEE7FEE7FEE7FEE7FEE7FEE70448054937
:1001D000054A064B7047000065050008310100081C
:1001E0006000002060060020600200206002002005
:1001F000704770477047754600F02CF8AE46050012
:100200006946534620F00700854618B020B5FFF731
:10021000DDFFBDE820404FF000064FF000074FF033
:1002200000084FF0000B21F00701AC46ACE8C00914
:10023000ACE8C009ACE8C009ACE8C0098D4670471D
:1002400010B50446AFF300802046BDE81040FFF72C
:10025000A8BF000000487047000000200149182096
:10026000ABBEFEE726000200704700BFFEE7704706
:1002700001B502E00098401E009000980028F9D1D6
:1002800008BD2DE9F041024600250026002000238C
:100290000024002791F803C00CF00F0591F803C06B
:1002A0000CF0100CBCF1000F03D091F802C04CEA26
:1002B000050591F800C0BCF1000F31D01468002092
:1002C0002BE04FF0010C0CFA00F3B1F800C00CEA7F
:1002D00003069E4220D183004FF00F0C0CFA03F767
:1002E000BC4305FA03FC4CEA040491F803C0BCF1DA
:1002F000280F06D14FF0010C0CFA00FCC2F814C014
:100300000AE091F803C0BCF1480F05D14FF0010C91
:100310000CFA00FCC2F810C0401C0828D1D31460AD
:10032000B1F800C0BCF1FF0F34DD546800202EE0AE
:1003300000F1080C4FF0010808FA0CF3B1F800C006
:100340000CEA03069E4221D183004FF00F0C0CFAF9
:1003500003F7BC4305FA03FC4CEA040491F803C01C
:10036000BCF1280F05D100F1080C08FA0CF8C2F80E
:10037000148091F803C0BCF1480F07D100F1080CBC
:100380004FF0010808FA0CF8C2F81080401C082849
:10039000CED35460BDE8F0810246002093680B4044
:1003A0000BB1012000E000207047416170470161FE
:1003B000704700BFFEE7000008B50121402000F0B3
:1003C00049F81E20ADF8000048208DF8030069466A
:1003D0000148FFF756FF08BD0018014070B50446FC
:1003E0000D4629462046FFF7D7FF98B942F2107014
:1003F000FFF73EFF29462046FFF7CEFF40B900BF7A
:1004000029462046FFF7C8FF0028F9D0002070BD1C
:100410000120FCE70120FAE708B50121042000F0E3
:1004200019F8FF20ADF8000010208DF8030003201C
:100430008DF8020069460448FFF723FFFF210248B8
:10044000FFF7B5FF08BD00000008014000BFFEE750
:100450007047704729B1064A92690243044B9A617A
:1004600004E0034A92698243014B9A61704700009D
:1004700000100240704710B500F002F810BD0000F7
:100480000CB50020019000903348006840F48030A3
:100490003149086000BF3048006800F40030009027
:1004A0000198401C0190009818B90198B0F5A06F10
:1004B000F1D12948006800F4003010B1012000900B
:1004C00001E0002000900098012843D123480068F3
:1004D00040F01000214908600846006820F0030041
:1004E00008600846006840F0020008601A4840684A
:1004F000194948600846406848600846406840F42A
:10050000806048600846406820F47C1048600846D7
:10051000406840F4E81048600846006840F0807089
:10052000086000BF0C48006800F000700028F9D097
:100530000948406820F003000749486008464068C1
:1005400040F00200486000BF0348406800F00C0023
:100550000828F9D10CBD0000001002400020024024
:100560007047000010B51348006840F001001149C1
:10057000086008464068104908400E49486008462F
:1005800000680E4908400B4908600846006820F4DE
:10059000802008600846406820F4FE0048604FF460
:1005A0001F008860FFF767FF4FF000600449086094
:1005B00010BD0000001002400000FFF8FFFFF6FE33
:1005C00008ED00E000BFFEE7FFF7F6FEFFF724FFAF
:1005D000D24CA2E10221D248FFF700FF002857D1F8
:1005E0000121D048FFF7E1FE2046FFF741FE01213F
:1005F000CC48FFF7DCFE0221CA48FFF7D6FE2046B2
:10060000FFF736FE0221C748FFF7D1FE0421C54897
:10061000FFF7CBFE2046FFF72BFE0421C148FFF772
:10062000C6FE0821BF48FFF7C0FE2046FFF720FEA8
:100630000821BC48FFF7BBFE1021BA48FFF7B5FE02
:100640002046FFF715FE1021B648FFF7B0FE202127
:10065000B448FFF7AAFE2046FFF70AFE2021B14862
:10066000FFF7A5FE4021AF48FFF79FFE2046FFF7AA
:10067000FFFD4021AB48FFF79AFE8021A948FFF714
:1006800094FE2046FFF7F4FD8021A648FFF78FFE79
:100690000421A348FFF7A2FE00287DD10121A14833
:1006A000FFF783FE02219F48FFF781FE04219D484A
:1006B000FFF77BFE08219B48FFF779FE1021994840
:1006C000FFF773FE20219748FFF771FE4021954800
:1006D000FFF76BFE80219348FFF769FE2046FFF786
:1006E000C7FD01218F48FFF762FE02218D48FFF709
:1006F0005CFE04218B48FFF75AFE08218948FFF76A
:1007000054FE10218748FFF752FE20218548FFF74D
:100710004CFE40218348FFF74AFE80218148FFF7C5
:1007200044FE2046FFF7A4FD01217E48FFF73DFE71
:1007300002217C48FFF73BFE04217A48FFF735FE93
:1007400008217848FFF733FE10217648FFF72DFE89
:1007500020217448FFF72BFE40217248FFF725FE49
:1007600080217048FFF723FE2046FFF781FD01211D
:100770006C48FFF71CFE02216A48FFF716FE0421B1
:100780006848FFF714FE08216648FFF70EFE1021A7
:100790006448FFF70CFE00E01BE020216148FFF7F2
:1007A00004FE40215F48FFF702FE80215D48FFF70D
:1007B000FCFD02215B48FFF7FAFD08215948FFF7CD
:1007C000F6FD20215748FFF7F2FD80215548FFF73D
:1007D000EEFD08215248FFF701FE00284BD1012110
:1007E0005048FFF7E2FD02214E48FFF7DEFD2046AC
:1007F000FFF73EFD01214B48FFF7D9FD0221494893
:10080000FFF7D5FD10214748FFF7CFFD20214548D0
:10081000FFF7CBFD2046FFF72BFD10214148FFF7E6
:10082000C6FD20213F48FFF7C2FD04213D48FFF7E8
:10083000BCFD08213B48FFF7B8FD2046FFF718FD37
:1008400004213848FFF7B3FD08213648FFF7AFFD14
:1008500040213448FFF7A9FD80213248FFF7A5FD6C
:100860002046FFF705FD40212E48FFF7A0FD80211F
:100870002C48FFF79CFD10212948FFF7AFFD002809
:100880004BD101212748FFF790FD80212548FFF734
:100890008CFD2046FFF7ECFC01212248FFF787FD85
:1008A00080212048FFF783FD02211E48FFF77DFDD0
:1008B00040211C48FFF779FD2046FFF7D9FC0221B3
:1008C0001848FFF774FD40211648FFF770FD04211A
:1008D0001448FFF76AFD20211248FFF766FD204605
:1008E000FFF7C6FC04210F48FFF761FD20210D48EA
:1008F000FFF75DFD08210B48FFF757FD1021094860
:10090000FFF753FD2046FFF7B3FC08210548FFF72A
:100910004EFD10210348FFF74AFD5BE640420F0001
:1009200000180140000801403809000800000020BC
:08093000600600006C010008E4
:0400000508000131BD
:00000001FF
