:020000040800F2
:1000000090060020CD0100080D040008A703000899
:100010000904000887020008090600080000000023
:100020000000000000000000000000003104000893
:100030008B020008000000000F0400081D050008E6
:10004000E7010008E7010008E7010008E7010008F0
:10005000E7010008E7010008E7010008E7010008E0
:10006000E7010008E7010008E7010008E7010008D0
:10007000E7010008E7010008E7010008E7010008C0
:10008000E7010008E7010008E7010008E7010008B0
:10009000E7010008E7010008E7010008E7010008A0
:1000A000E7010008E7010008E7010008E701000890
:1000B000E7010008E7010008E7010008E701000880
:1000C000E7010008E7010008E7010008E701000870
:1000D000E7010008E7010008E7010008E701000860
:1000E000E7010008E7010008E7010008E701000850
:1000F000E7010008E7010008E7010008E701000840
:10010000E7010008E7010008E7010008E70100082F
:10011000E7010008E7010008E7010008E70100081F
:10012000E7010008E7010008E7010008E70100080F
:1001300000F002F800F03AF80AA090E8000C8244BF
:100140008344AAF10107DA4501D100F02FF8AFF29C
:10015000090EBAE80F0013F0010F18BFFB1A43F0A5
:1001600001031847BC050000DC050000103A24BF5D
:1001700078C878C1FAD8520724BF30C830C144BF0C
:1001800004680C607047000000230024002500264E
:10019000103A28BF78C1FBD8520728BF30C148BFEA
:1001A0000B6070471FB51FBD10B510BD00F031F8D2
:1001B0001146FFF7F7FF00F063FA00F04FF803B4C1
:1001C000FFF7F2FF03BC00F057F800000948804732
:1001D00009480047FEE7FEE7FEE7FEE7FEE7FEE729
:1001E000FEE7FEE7FEE7FEE704480549054A064B41
:1001F00070470000A90500083101000890000020A8
:100200009006002090020020900200207047704766
:100210007047754600F02CF8AE4605006946534617
:1002200020F00700854618B020B5FFF7DDFFBDE8D8
:1002300020404FF000064FF000074FF000084FF04D
:10024000000B21F00701AC46ACE8C009ACE8C009DE
:10025000ACE8C009ACE8C0098D46704710B504464B
:10026000AFF300802046BDE81040FFF7A8BF0000B4
:10027000004870473000002001491820ABBEFEE75F
:1002800026000200704700BFFEE770472DE9F041ED
:10029000024600250026002000230024002791F8B4
:1002A00003C00CF00F0591F803C00CF0100CBCF16A
:1002B000000F03D091F802C04CEA050591F800C088
:1002C000BCF1000F31D0146800202BE04FF0010C7E
:1002D0000CFA00F3B1F800C00CEA03069E4220D1EC
:1002E00083004FF00F0C0CFA03F7BC4305FA03FC34
:1002F0004CEA040491F803C0BCF1280F06D14FF07A
:10030000010C0CFA00FCC2F814C00AE091F803C01A
:10031000BCF1480F05D14FF0010C0CFA00FCC2F8FB
:1003200010C0401C0828D1D31460B1F800C0BCF143
:10033000FF0F34DD546800202EE000F1080C4FF070
:10034000010808FA0CF3B1F800C00CEA03069E425B
:1003500021D183004FF00F0C0CFA03F7BC4305FAD0
:1003600003FC4CEA040491F803C0BCF1280F05D14A
:1003700000F1080C08FA0CF8C2F8148091F803C0D8
:10038000BCF1480F07D100F1080C4FF0010808FA42
:100390000CF8C2F81080401C0828CED35460BDE889
:1003A000F0810161704700BFFEE7000008B5012140
:1003B000202000F02DF8FF20ADF8000010208DF86F
:1003C000030003208DF8020069460D48FFF75EFF29
:1003D000FF210B48FFF7E5FF0121402000F018F84E
:1003E000FF20ADF8000010208DF803006946054895
:1003F000FFF74CFFFF210348FFF7D3FF08BD0000C4
:10040000001401400018014000BFFEE7704770472C
:1004100029B1064A92690243044B9A6104E0034AF7
:1004200092698243014B9A617047000000100240BC
:10043000704710B500F002F810BD00000CB50020A8
:10044000019000903348006840F4803031490860E2
:1004500000BF3048006800F4003000900198401C54
:100460000190009818B90198B0F5A06FF1D1294812
:10047000006800F4003010B10120009001E000207D
:1004800000900098012843D12348006840F01000F4
:10049000214908600846006820F00300086008460B
:1004A000006840F0020008601A4840681949486036
:1004B0000846406848600846406840F480604860EC
:1004C0000846406820F47C1048600846406840F4C4
:1004D000E81048600846006840F08070086000BF7F
:1004E0000C48006800F000700028F9D00948406806
:1004F00020F00300074948600846406840F00200C9
:10050000486000BF0348406800F00C000828F9D19B
:100510000CBD0000001002400020024002480068AC
:10052000401E0149086070472C00002030B51A4871
:1005300000681A4AB0FBF2F1B1F1807F01D30120CB
:100540001DE021F07F40401E4FF0E0225061501727
:100550000F22002807DA13071D0E114B00F00F04BD
:10056000241F1D5503E013071C0E0E4B1C5400BF27
:1005700000204FF0E022906107201061002008B1B8
:1005800000BFFEE74FF0E020006920F001004FF0CF
:10059000E021086130BD000014000020A0860100A9
:1005A00018ED00E000E400E010B51348006840F0EA
:1005B00001001149086008464068104908400E498A
:1005C0004860084600680E4908400B490860084624
:1005D000006820F4802008600846406820F4FE008F
:1005E00048604FF41F008860FFF723FF4FF0006062
:1005F0000449086010BD0000001002400000FFF830
:10060000FFFFF6FE08ED00E000BFFEE7002106E078
:10061000002200E0521CB2F5FA5FFBD3491C814274
:10062000F6D370470146114A12784A434FF0E0234F
:100630005A6100229A611A46126942F001021A6157
:1006400000BF4FF0E022106900F001021AB100F47F
:100650008032002AF5D04FF0E022126922F0010228
:100660004FF0E0231A6100229A61704728000020B1
:10067000002102E000BF00BF491C8142FAD370474D
:10068000FFF754FFFFF792FE43E000253BE0002414
:1006900025E02048405D0121A140084020B1012013
:1006A000A0401D49086004E00120A0401A49091D2E
:1006B0000860184905F10800085C0121A1400840C4
:1006C00020B10120A0401549086004E00120A040AD
:1006D0001249091D08606420FFF7A4FF641C082C60
:1006E000D7DB4FF480700C4908600C490860642027
:1006F000FFF7BEFF4FF480700749091D08600749E6
:10070000091D08606D1C082DC1DB4FF4FA70FFF75E
:100710007DFFBAE70B0000201018014010140140C3
:100720004007000800000020300000006C010008B5
:1007300070070008300000206006000088010008F3
:100740007EBDDBE7E7DBBD7E0000003C42A581A566
:1007500099423C0000A24A04000000000000000092
:100760000102030406070809000000000000000061
:0400000508000131BD
:00000001FF
