:020000040800F2
:1000000000040020450100080D02000893010008CB
:10001000090200088D0100086103000800000000CB
:1000200000000000000000000000000011020008B5
:1000300091010008000000000F020008FD02000806
:100040005F0100085F0100085F0100085F01000810
:100050005F0100085F0100085F0100085F01000800
:100060005F0100085F0100085F0100085F010008F0
:100070005F0100085F0100085F0100085F010008E0
:100080005F0100085F0100085F0100085F010008D0
:100090005F0100085F0100085F0100085F010008C0
:1000A0005F0100085F0100085F0100085F010008B0
:1000B0005F0100085F0100085F0100085F010008A0
:1000C0005F0100085F0100085F0100085F01000890
:1000D0005F0100085F0100085F0100085F01000880
:1000E0005F0100085F0100085F0100085F01000870
:1000F0005F0100085F0100085F0100085F01000860
:100100005F0100085F0100085F0100085F0100084F
:100110005F0100085F0100085F0100085F0100083F
:100120005F0100085F0100085F0100085F0100082F
:10013000DFF80CD000F018F80048004785030008ED
:10014000000400200648804706480047FEE7FEE717
:10015000FEE7FEE7FEE7FEE7FEE7FEE7FEE7FEE777
:100160000103000831010008064C074D06E0E06875
:1001700040F0010394E8070098471034AC42F6D3EE
:10018000FFF7DAFFF40300080404000800BFFEE7ED
:10019000704700BFFEE700001848806940F0080083
:1001A000164988610846806940F04000886114481B
:1001B000006820F47000124908600846006840F4A6
:1001C000401008600E480C30006840F020000C49D8
:1001D0000C3108600B48006820F470000949086081
:1001E0000846006840F44010086006480C3000687B
:1001F00040F0200003490C310860704700100240B5
:10020000000C01400018014000BFFEE77047704736
:10021000704710B500F002F810BD00000CB50020CA
:10022000019000903348006840F480303149086004
:1002300000BF3048006800F4003000900198401C76
:100240000190009818B90198B0F5A06FF1D1294834
:10025000006800F4003010B10120009001E000209F
:1002600000900098012843D12348006840F0100016
:10027000214908600846006820F00300086008462D
:10028000006840F0020008601A4840681949486058
:100290000846406848600846406840F4806048600E
:1002A0000846406820F47C1048600846406840F4E6
:1002B000E81048600846006840F08070086000BFA1
:1002C0000C48006800F000700028F9D00948406828
:1002D00020F00300074948600846406840F00200EB
:1002E000486000BF0348406800F00C000828F9D1BE
:1002F0000CBD0000001002400020024070470000CA
:1003000010B51348006840F0010011490860084624
:100310004068104908400E494860084600680E4988
:1003200008400B4908600846006820F480200860F7
:100330000846406820F4FE0048604FF41F008860C3
:10034000FFF767FF4FF000600449086010BD000030
:10035000001002400000FFF8FFFFF6FE08ED00E08D
:1003600000BFFEE702E008C8121F08C1002AFAD148
:1003700070477047002001E001C1121F002AFBD125
:1003800070470000FFF708FF2FE01848006840F0B2
:100390002000164908601648006840F02000144903
:1003A0000860002206E0002300E05B1CB3F57A7FC2
:1003B000FBDB521CB2F57A7FF5DB0C48006820F0BD
:1003C00020000A4908600A48006820F02000084917
:1003D0000860002206E0002300E05B1CB3F57A7F92
:1003E000FBDB521CB2F57A7FF5DBCEE70C0C01404B
:1003F0000C18014004040008000000200004000064
:040400007403000879
:0400000508000131BD
:00000001FF
