:020000040800F2
:1000000078060020CD010008950400083F04000890
:1000100091040008EB0200088908000800000000B5
:10002000000000000000000000000000750600084D
:10003000EF0200080000000015050008890700080D
:10004000E7010008E7010008E7010008E7010008F0
:10005000E7010008E7010008E7010008E7010008E0
:10006000E7010008E7010008E7010008E7010008D0
:10007000E7010008E7010008E7010008E7010008C0
:10008000E7010008E7010008E7010008E7010008B0
:10009000E7010008E7010008E7010008E7010008A0
:1000A000E7010008E7010008E7010008E701000890
:1000B000E7010008E7010008E7010008E701000880
:1000C000E7010008E7010008E7010008E701000870
:1000D000E7010008E7010008E7010008E701000860
:1000E000E7010008E7010008E7010008E701000850
:1000F000E7010008E7010008E7010008E701000840
:10010000E7010008E7010008E7010008E70100082F
:10011000E7010008E7010008E7010008E70100081F
:10012000E7010008E7010008E7010008E70100080F
:1001300000F002F800F03AF80AA090E8000C8244BF
:100140008344AAF10107DA4501D100F02FF8AFF29C
:10015000090EBAE80F0013F0010F18BFFB1A43F0A5
:10016000010318476407000084070000103A24BF09
:1001700078C878C1FAD8520724BF30C830C144BF0C
:1001800004680C607047000000230024002500264E
:10019000103A28BF78C1FBD8520728BF30C148BFEA
:1001A0000B6070471FB51FBD10B510BD00F063F8A0
:1001B0001146FFF7F7FF00F069FB00F081F803B488
:1001C000FFF7F2FF03BC00F089F800000948804700
:1001D00009480047FEE7FEE7FEE7FEE7FEE7FEE729
:1001E000FEE7FEE7FEE7FEE704480549054A064B41
:1001F0007047000011080008310100087800002055
:1002000078060020780200207802002010B5203AFD
:10021000C0F00B80B1E81850203AA0E81850B1E8BF
:100220001850A0E81850BFF4F5AF5FEA027C24BF75
:10023000B1E81850A0E8185044BF18C918C0BDE86C
:1002400010405FEA827C24BF51F8043B40F8043B35
:1002500008BF7047D20728BF31F8023B48BF11F8EA
:10026000012B28BF20F8023B48BF00F8012B704744
:10027000704770477047754600F02CF8AE46050091
:100280006946534620F00700854618B020B5FFF7B1
:10029000ABFFBDE820404FF000064FF000074FF0E5
:1002A00000084FF0000B21F00701AC46ACE8C00994
:1002B000ACE8C009ACE8C009ACE8C0098D4670479D
:1002C00010B50446AFF300802046BDE81040FFF7AC
:1002D00076BF000000487047180000200149182030
:1002E000ABBEFEE726000200704700BFFEE7704786
:1002F00001B50849009808604FF0E020006940F01F
:1003000001004FF0E021086100BF024800680028AA
:10031000FBD108BD000000202DE9F0410246002578
:100320000026002000230024002791F803C00CF0D1
:100330000F0591F803C00CF0100CBCF1000F03D0B6
:1003400091F802C04CEA050591F800C0BCF1000F1D
:1003500031D0146800202BE04FF0010C0CFA00F3B0
:10036000B1F800C00CEA03069E4220D183004FF092
:100370000F0C0CFA03F7BC4305FA03FC4CEA040427
:1003800091F803C0BCF1280F06D14FF0010C0CFA14
:1003900000FCC2F814C00AE091F803C0BCF1480F99
:1003A00005D14FF0010C0CFA00FCC2F810C0401C43
:1003B0000828D1D31460B1F800C0BCF1FF0F34DDC0
:1003C000546800202EE000F1080C4FF0010808FAF4
:1003D0000CF3B1F800C00CEA03069E4221D1830061
:1003E0004FF00F0C0CFA03F7BC4305FA03FC4CEA80
:1003F000040491F803C0BCF1280F05D100F1080CEA
:1004000008FA0CF8C2F8148091F803C0BCF1480F48
:1004100007D100F1080C4FF0010808FA0CF8C2F8F7
:100420001080401C0828CED35460BDE8F0810146FE
:10043000886880B27047416170470161704700BFB2
:10044000FEE7000008B50121042000F065F80F2048
:10045000ADF8000001208DF8020010208DF8030097
:1004600069460A48FFF758FFF020ADF80000012068
:100470008DF8020028208DF8030069460348FFF735
:100480004BFF0F210148FFF7D8FF08BD00080140CE
:1004900000BFFEE77047000030B589B00446202257
:1004A0000B4901A8FFF7B2FE2546002D0EDBFF2009
:1004B0000849086001A830F81500C04306490860E3
:1004C0000020044908600220FFF712FF09B030BD88
:1004D000A80800080C1401400C18014008B50121BF
:1004E000602000F019F803208DF80200FF20ADF81D
:1004F000000010208DF8030069460448FFF70CFF48
:1005000069460348FFF708FF08BD000000140140DA
:10051000001801407047000029B1064A9269024361
:10052000044B9A6104E0034A92698243014B9A6149
:10053000704700000010024010B54FF0FF344C48E7
:10054000FFF775FFC0B20F2877D00220FFF7D0FE6B
:100550004748FFF76CFFC0B20F28F5D0012144488F
:10056000FFF76BFF0E214248FFF765FF4048FFF79A
:100570005EFFC0B2112806D0212806D0412806D03F
:10058000812808D105E0002405E0042403E00824C4
:1005900001E00C2400BF00BF02213548FFF74DFFEA
:1005A0000D213348FFF747FF3148FFF740FFC0B246
:1005B000122806D0222806D0422806D0822808D148
:1005C00005E0012405E0052403E0092401E00D24F1
:1005D00000BF00BF04212648FFF72FFF0B2124484E
:1005E000FFF729FF2248FFF722FFC0B2142806D0E8
:1005F000242806D0442806D0842808D105E0022407
:1006000005E0062403E00A2401E00E2400BF00BF39
:1006100008211748FFF711FF07211548FFF70BFFC7
:100620001348FFF704FFC0B2182807D0282807D0C6
:10063000482807D0882809D106E015E0032405E002
:10064000072403E00B2401E00F2400BF00BF0F21AB
:100650000748FFF7F2FE00BF0548FFF7E8FEC0B20B
:100660000F28F9D1204610BD4FF0FF30FBE7000006
:1006700000080140704710B500F002F810BD0000FE
:100680000CB50020019000903348006840F48030A1
:100690003149086000BF3048006800F40030009025
:1006A0000198401C0190009818B90198B0F5A06F0E
:1006B000F1D12948006800F4003010B10120009009
:1006C00001E0002000900098012843D123480068F1
:1006D00040F01000214908600846006820F003003F
:1006E00008600846006840F0020008601A48406848
:1006F000194948600846406848600846406840F428
:10070000806048600846406820F47C1048600846D5
:10071000406840F4E81048600846006840F0807087
:10072000086000BF0C48006800F000700028F9D095
:100730000948406820F003000749486008464068BF
:1007400040F00200486000BF0348406800F00C0021
:100750000828F9D10CBD0000001002400020024022
:10076000042808D14FF0E021096941F004014FF05D
:10077000E022116107E04FF0E021096921F0040156
:100780004FF0E0221161704710B500F071F810BD14
:1007900070B50420FFF7E4FF1A4800684FF47A723E
:1007A000B0FBF2F1B1F1807F01D301201DE021F017
:1007B0007F40401E4FF0E022506150170F2200286A
:1007C00007DA13071D0E104B00F00F04241F1D55F0
:1007D00003E013071C0E0D4B1C5400BF00204FF00C
:1007E000E022906107201061002008B100BFFEE701
:1007F0004FF0E020006920F001004FF0E021086197
:1008000070BD00000400002018ED00E000E400E0EE
:1008100010B51348006840F001001149086008460F
:100820004068104908400E494860084600680E4973
:1008300008400B4908600846006820F480200860E2
:100840000846406820F4FE0048604FF41F008860AE
:10085000FFF711FF4FF000600449086010BD000071
:10086000001002400000FFF8FFFFF6FE08ED00E078
:100870000448006820B103480068401E0149086030
:10088000704700000000002000BFFEE7FFF780FF78
:10089000FFF7D8FDFFF722FE05E0FFF74DFE044607
:1008A0002046FFF7F9FDF8E73F0006005B004F0028
:1008B00066006D007D0007007F006F0077007C0000
:1008C00039005E0079007100E8080008000000208F
:1008D000180000006C010008000900081800002042
:1008E00060060000880100080000000000A24A0421
:1008F00000000000000000000102030406070809D0
:0400000508000131BD
:00000001FF
